:100000000C9430210C9461210C9461210C94612199
:100010000C9461210C9461210C9461210C94612158
:100020000C9461210C9461210C9461210C94612148
:100030000C9461210C9461210C9461210C94612138
:100040000C9461210C94FA540C9461210C9461215C
:100050000C9461210C9461210C94EDBC0D94CA1593
:100060000C9461210C94BCCC0C94B2CC0C94612106
:100070000C9461210C9461210C9461210C946121F8
:100080000C94A1C70C9461210C9461210C94612102
:100090000C9461210C9461210C9461210C94E08EEC
:1000A0000C9461210C9461210C9474C70C9461210F
:1000B0000C9461210C9461210C9461210C9447C72C
:1000C0000C9461210C9461210C9461210C946121A8
:1000D0000C9461210C9461210C9461210C94612198
:1000E0000C946121309B629B649B719B769B2E9B41
:1000F0007F9B4701F7001D015101090129011901E9
:100100003701D90015013F01E10011014F01F10054
:100110004B012501F900D30023010B014D01F5002E
:10012000DB003101EF00F9003D010F01ED002D0171
:1001300027011301D500CF003301D7002F0117018C
:10014000E7004301E900DF000D013301D100FF00AA
:10015000F300084AD73B3BCE016E84BCBFFDC12FE4
:100160003D6C74319ABD56833DDA3D00C77F11BEA8
:10017000D9E4BB4C3E916BAAAABE000000803F05AB
:10018000A84CCDB2D44EB93836A9020C50B99186DC
:1001900088083CA6AAAA2ABE000000803F000D9451
:1001A00004150D945F150D940E120D94FA140D9410
:1001B0000E150D9447060D9426120D94D8020D9439
:1001C0004B150D944D060D9460230D94A0040D94D1
:1001D00028150D943C150D9465060D943C120D9454
:1001E0002E120D94F9110D9473150D9420120D9487
:1001F00038060D9441120D948B040D9442230D94F6
:1002000069150D942D050D9499040D940A080D940B
:10021000BC040D943E060D9418120D9455150D94C2
:1002200038120D9407120D94F0140D9463060D947A
:100230001E150D9444060D94C3040D943B060D94B5
:100240007E060D94FB070D9412120D9403120D946B
:10025000EB140D9441060D9450010D94E6140D9489
:1002600016150D942A120D947D150D9492040D947B
:1002700050060D9422050D94AE040D9434120D9485
:100280004A060D94CA040D9432150D94B5040D94CC
:1002900055060D94A7040D94FD110D941C120D9498
:1002A0000A120D9458060D9442090D94DD004E413A
:1002B0004E494E495459494E46CDCCCC3D0AD723E0
:1002C0003C17B7D13877CC2B329595E6241FB14F28
:1002D0000A000020410000C84200401C4620BCBE6D
:1002E0004CCA1B0E5AAEC59D7400407A10F35A00DA
:1002F000A0724E18090010A5D4E80000E87648174F
:100300000000E40B54020000CA9A3B000000E1F533
:1003100005000080969800000040420F000000A0F9
:100320008601000000102700000000E80300000024
:10033000006400000000000A00000000000100004E
:100340000000002C76D888DC674F0823DFC1DFAEC1
:1003500059E1B1B796E5E3E453C63AE6519976968A
:10036000E8E6C28426EB898C9B62ED407C6FFCEF53
:10037000BC9C9F40F2BAA56FA5F490055A2AF75C81
:10038000936B6CF9676DC11BFCE0E40D47FEF52033
:10039000E6B500D0ED902E030094357705008084FB
:1003A0001E080000204E0A000000C80C333333330F
:1003B0000F986E12831141EF8D2114893BE655167B
:1003C000CFFEE6DB18D1844B381BF77C1D901DA4B3
:1003D000BBE424203284725E228100C9F124ECA1A6
:1003E000E53D27434F4D4D554E49434154494F4EEE
:1003F0000044525952554E004552524F52530049F3
:100400004E464F004543484F0047322F4733206246
:10041000616420706172616D65746572730A005366
:100420006C6565702E2E2E00486F6D652058592022
:1004300066697273740A00486F6D652058592066AA
:100440006972737400205A3A200020593A20004201
:10045000656420583A20004D65736820706F696E9E
:10046000742063616E6E6F74206265207265736FB5
:100470006C7665640A004E6F206D6F76652E0045C0
:100480006E642066696C65206C6973740A0042654D
:1004900067696E2066696C65206C6973740A002850
:1004A0006E6F2066696C65290043757272656E74A3
:1004B0002066696C653A20005344207072696E743E
:1004C000696E67206279746520004E6F7420534412
:1004D000207072696E74696E670A005072696E747A
:1004E0002074696D653A20000A53746174733A2070
:1004F00046696C616D656E7420757365643A2000A1
:100500002C204C6F6E67657374206A6F623A20000E
:10051000546F74616C2074696D653A200053746186
:1005200074733A20002C204661696C65643A20009F
:100530002C2046696E69736865643A2000507269C0
:100540006E74733A200053746174733A200045202E
:10055000436F6F6C696E672E2E2E004520486561D3
:1005600074696E672E2E2E006F6666000404FF030A
:10057000F803F103E30344454255473A004D313156
:10058000332053006F6B0043522D32302050726F76
:10059000204F46462E004348414D4245525F544548
:1005A0004D5045524154555245004D4F54494F4EC0
:1005B0005F4D4F44455300544845524D414C5F50A8
:1005C000524F54454354494F4E004155544F5245A4
:1005D000504F52545F53445F53544154555300504D
:1005E000524F4D50545F535550504F525400454D4B
:1005F000455247454E43595F50415253455200437F
:100600004153455F4C494748545F4252494748541B
:100610004E45535300544F47474C455F4C4947485C
:10062000545300534F4654574152455F504F57451E
:1006300052004255494C445F50455243454E540088
:100640004C4556454C494E475F44415441005A5F22
:1006500050524F4245004155544F4C4556454C0071
:100660005052494E545F4A4F420050524F475245F4
:100670005353004155544F5245504F52545F5445C7
:100680004D5000564F4C554D455452494300454539
:1006900050524F4D0042494E4152595F46494C45D8
:1006A0005F5452414E534645520053455249414CC6
:1006B0005F584F4E5F584F4646004649524D57418E
:1006C00052455F4E414D453A4D61726C696E2062F4
:1006D00075676669782D322E302E78202847697428
:1006E0006875622920534F555243455F434F444537
:1006F0005F55524C3A68747470733A2F2F6769745F
:100700006875622E636F6D2F4D61726C696E4669FC
:10071000726D776172652F4D61726C696E205052F7
:100720004F544F434F4C5F56455253494F4E3A3109
:100730002E30204D414348494E455F545950453A6B
:1007400043522D32302050726F2045585452554438
:1007500045525F434F554E543A3120555549443A1E
:1007600063656465326132662D343161322D343710
:1007700034382D396231322D633535633632663384
:10078000363766660A002F2F20004D31343520534E
:100790003C696E6465783E206F7574206F662072C8
:1007A000616E67652028302D31290A002054002011
:1007B0005200416363656C65726174696F6E3A20C3
:1007C000500020466C6F773A200050726F7465635A
:1007D0007465642050696E0A00206F7574206F661E
:1007E0002072616E67650A00536572766F20003A69
:1007F000200020536572766F200050726F62652072
:100800005A204F66667365743A2000496E76616CB3
:1008100069642065787472756465720A0020643AB0
:100820000020693A0020703A0064697300656E0028
:1008300043290A0061626C656420286D696E20742A
:10084000656D702000436F6C642065787472756408
:1008500065732061726520004D65736820706F6953
:100860006E742063616E6E6F7420626520726573B2
:100870006F6C7665640A004D34323120696E636FA7
:10088000727265637420706172616D657465722047
:1008900075736167650A004F6666736574732061DE
:1008A00070706C696564004572723A20546F6F20F5
:1008B0006661722100546F6F206661722066726FEC
:1008C0006D207265666572656E636520706F696E16
:1008D000740A00454550524F4D204F4B0A003F5A75
:1008E000206F7574206F662072616E676520282DF9
:1008F000323020746F203230290A0050726F6265E6
:10090000205A204F66667365743A20003F4B20766C
:10091000616C7565206F7574206F662072616E67FB
:10092000652028302D3130292E0A00416476616E11
:100930006365204B3D0043617365206C6967687493
:100940003A200043617365206C696768743A206FD0
:1009500066660A004F4646004F4E00506F7765723C
:100960002D6C6F7373207265636F766572792000EA
:10097000496E76616C69642065787472756465721D
:100980000A0050726F6265205A204F666673657464
:10099000004C6F6164206D6D004C6F6164206D6D63
:1009A00000556E6C6F6164206D6D00556E6C6F61EB
:1009B00064206D6D0046696C2E204469612E0046EE
:1009C000696C2E204469612E004F6666004F6E00F0
:1009D0004520696E206D6D5E3300416476616E6303
:1009E00065204B00416476616E6365204B00416475
:1009F00076616E6365642053657474696E67730015
:100A00004D33303320553120452569205325690069
:100A1000504944204175746F74756E6500504944A7
:100A2000204175746F74756E65005049442D440003
:100A30005049442D44005049442D49005049442D0B
:100A400049005049442D50005049442D5000200881
:100A5000204661637400200820466163740020080A
:100A6000204D6178002008204D6178002008204D3D
:100A7000696E002008204D696E004F6666004F6E5B
:100A8000004175746F74656D7000416476616E63CA
:100A900065642053657474696E6773004572723AB9
:100AA000207574663820666F6E74206E6F742069CE
:100AB0006E697469616C697A65642E004572723A78
:100AC000207574663820666F6E74206E6F742069AE
:100AD0006E697469616C697A65642E004572723A58
:100AE000207574663820666F6E74206E6F7420698E
:100AF0006E697469616C697A65642E0000060C0089
:100B0000FE07022603BC017FFE08FE08FE0508085A
:100B100006000040F0C8888898781005080806008C
:100B200000C0F88888888888F80505050600012037
:100B300030F830200508080600002070F82020203A
:100B400020E00509090600FF2070A8A8B888887071
:100B500020050606060001E08CEA8C8A0A050909D0
:100B60000600FFF8A88888888888A8F8050A0A0679
:100B700000FE205050505088A8A888700303030638
:100B8000000340A040FFFFFFFFFFFFFFFFFFFFFF4D
:100B9000FFFFFFFFFFFFFFFFFFFFFF000000060555
:100BA000FF01070706020080808080800080030329
:100BB00003060105A0A0A005060606000050F85097
:100BC00050F8500509090600FF2070A8A07028A859
:100BD0007020050707060000C8C810204098980537
:100BE000070706000040A0A040A890680103030684
:100BF00002058080800309090601FF2040408080B3
:100C0000804040200309090601FF80404020202049
:100C100040408005070706000020A8702070A8202B
:100C20000505050600012020F82020020303060127
:100C3000FFC04080050101060003F8020202060120
:100C400000C0C005070706000008101020404080C3
:100C5000050707060000708898A8C8887003070772
:100C600006010040C040404040E005070706000084
:100C7000708808102040F8050707060000F80810E3
:100C80003008887005070706000010305090F810F3
:100C900010050707060000F880F0080888700507AF
:100CA00007060000304080F08888700507070600BE
:100CB00000F80810102020200507070600007088A3
:100CC0008870888870050707060000708888780893
:100CD0001060020505060100C0C000C0C002060683
:100CE0000601FFC0C000C0408003050506010120C9
:100CF00040804020050303060002F800F8030505C4
:100D0000060101804020408005070706000070882A
:100D100010202000200507070600007088B8A8B83A
:100D20008070050707060000708888F888888805A5
:100D30000707060000F04848704848F00507070616
:100D4000000070888080808870050707060000F02A
:100D50004848484848F0050707060000F88080F03A
:100D60008080F8050707060000F88080F08080800A
:100D700005070706000070888080988870050707BF
:100D8000060000888888F88888880307070601001D
:100D9000E04040404040E0050707060000381010E2
:100DA000101090600507070600008890A0C0A09072
:100DB00088050707060000808080808080F805078E
:100DC0000706000088D8A8888888880507070600D5
:100DD000008888C8A89888880507070600007088DA
:100DE0008888888870050707060000F08888F080EA
:100DF000808005070706000070888888A89068052D
:100E00000707060000F08888F0A09088050707060D
:100E1000000070888070088870050707060000F8D9
:100E200020202020202005070706000088888888C9
:100E30008888700507070600008888888850502039
:100E400005070706000088888888A8A850050707B6
:100E50000600008888502050888805070706000093
:100E600088885020202020050707060000F8081079
:100E7000204080F80309090601FFE080808080801F
:100E80008080E00507070600008040402010100821
:100E90000309090601FFE020202020202020E00592
:100EA00003030600052050880501010600FEF80333
:100EB00003030601058040200505050600007008B3
:100EC0007888780507070600008080F0888888F019
:100ED000050505060000708080887005070706007C
:100EE000000808788888887805050506000070885D
:100EF000F08070050707060000304840E0404040A1
:100F00000507070600FE70888888780870050707BF
:100F10000600008080F088888888030707060100A3
:100F20004000C0404040E00409090601FE100030C6
:100F30001010101090600507070600008080889050
:100F4000E09088030707060100C04040404040E0B1
:100F5000050505060000D0A8A8A8A80505050600F7
:100F600000B0C88888880505050600007088888854
:100F7000700507070600FEF0888888F08080050766
:100F8000070600FE788888887808080505050600A9
:100F900000B0C880808005050506000078807008D4
:100FA000F00507070600002020F82020201805057E
:100FB00005060000888888986805050506000088F1
:100FC000888850200505050600008888A8A85005D7
:100FD000050506000088502050880507070600FE1A
:100FE00088888850204080050505060000F81020FC
:100FF00040F80309090601FF20404040804040407E
:10100000200109090602FF80808080808080808026
:101010000309090601FF8040404020404040800510
:10102000030306000248A890FF00060900FE06011F
:101030008902FE20FFFE07FE06FE000000060007F4
:1010400001060606020080808080008003030306FC
:101050000103A0A0A00507070600FF5050F850F8B4
:1010600050500509090600FE2070A8A07028A8703D
:10107000200608080600FF40A8481020485408052C
:1010800007070600FF6090906098906801030306D0
:1010900002038080800207070602FF408080808074
:1010A00080400207070602FF804040404040800524
:1010B00005050600008850F8508805050506000063
:1010C0002020F820200204040602FEC040408005D3
:1010D0000101060002F8020202060200C0C0040676
:1010E000060601001010204080800406060601005C
:1010F00060909090906003060606010040C040405A
:1011000040E00406060601006090102040F004064E
:1011100006060100F020601010E00506060600003B
:1011200010305090F810040606060100F080E01020
:1011300010E00406060601006080E090906004065E
:1011400006060100F01010204040040606060100CB
:1011500060906090906004060606010060909070B8
:101160001060020505060200C0C000C0C0020707EB
:101170000602FEC0C000C040408005050506000014
:101180001860806018050303060001F800F80505E3
:1011900005060000C0300830C004070706010060E3
:1011A0009010604000400506060600007090A8B050
:1011B0008070050606060000205088F8888805061D
:1011C00006060000F088F08888F004060606010094
:1011D000609080809060040606060100E090909088
:1011E00090E0040606060100F080E08080F004062E
:1011F00006060100F080E0808080040606060100FB
:10120000609080B090600406060601009090F09017
:101210009090030606060100E040404040E00506CD
:101220000606000038101010906004060606010043
:1012300090A0C0A0909004060606010080808080E7
:1012400080F005060606000088D8A8A8888804064D
:101250000606010090D0B0909090050606060000AA
:10126000708888888870040606060100E09090E087
:1012700080800407070601FF609090D0B0601004E2
:101280000606060100E09090E09090040606060134
:1012900000609040209060050606060000F82020BF
:1012A0002020200406060601009090909090600493
:1012B0000606060100909090F060600506060600A4
:1012C000008888A8A8D8880506060600008850204F
:1012D000205088050606060000888850202020043B
:1012E0000606060100F010204080F0030606060105
:1012F00000E080808080E0040606060100808040D7
:10130000201010030606060100E020202020E00542
:1013100003030600032050880501010600FEF802C1
:10132000020206020480400404040601007090904A
:10133000700406060601008080E09090E00404043A
:10134000060100708080700406060601001010700F
:1013500090907004040406010060B0C0700406069A
:10136000060100205040E040400406060601FE60F1
:1013700090907010600406060601008080E0909056
:10138000900306060601004000C04040E003080844
:101390000601FE200060202020A040040606060171
:1013A000008080A0C0A090030606060100C0404057
:1013B0004040E0050404060000D0A8A88804040406
:1013C000060100E0909090040404060100609090F3
:1013D000600406060601FEE09090E08080040606A8
:1013E0000601FE709090701010040404060100A025
:1013F000D0808004040406010070C030E0040606BA
:101400000601004040E04050200404040601009022
:10141000909070040404060100909060600504043C
:1014200006000088A8A8500404040601009060602B
:10143000900406060601FE909090709060040404EB
:10144000060100F02040F00307070601002040409D
:10145000804040200107070602FF80808080808056
:1014600080030707060100804040204040800402BE
:101470000206010350A0FFFFFFFFFFFFFFFFFFFF7A
:10148000FFFFFFFFFFFFFFFFFFFFFFFFFFFFFFFF6C
:10149000FFFFFFFFFFFFFF00000006000701060639
:1014A0000602008000808080800406060601FF207E
:1014B00070A0A070200507070600FF304840F040EC
:1014C00040F8050505060000A8508850A805060646
:1014D0000600008850F820F8200107070602FF8068
:1014E0008080008080800407070601FF7080609084
:1014F0006010E0030101060105A0060707060000D1
:10150000788494A494847803050506010160A060A2
:1015100000E00505050600002850A050280403033C
:10152000060100F01010040101060102F006070791
:101530000600007884B4A4A484780401010601059F
:10154000F00403030601026090600507070600FF30
:101550002020F8202000F803050506010140A02006
:1015600040E0030505060101C0204020C002020240
:1015700006020440800405050601FF9090B0D0806B
:1015800005060606000078E8E8682828010101063B
:101590000202800202020602FE40800305050601E7
:1015A0000140C04040E003050506010140A04000A5
:1015B000E0050505060000A0502850A00508080613
:1015C00000FF40C04050703078100508080600FF4A
:1015D00040C04050680810380508080600FFC020C9
:1015E0004030F0307810040707060100200020602A
:1015F0008090600507070600004020205070888812
:10160000050707060000102020507088880507078E
:10161000060000205020507088880507070600004B
:1016200028502050708888050707060000500020C9
:1016300050708888050707060000205020507088E9
:101640008805060606000078A0F0A0A0B8040808E7
:101650000601FE609080809060204004070706012C
:10166000004020F080E080F00407070601002040E1
:10167000F080E080F00407070601002050F080E0D1
:1016800080F00407070601005000F080E080F003BE
:1016900007070601008040E0404040E003070706DE
:1016A00001002040E0404040E00307070601004001
:1016B000A0E0404040E0030707060100A000E04032
:1016C0004040E00506060600007048E848487004FF
:1016D000070706010050A090D0B0909004070706BD
:1016E00001004020609090906004070706010020F0
:1016F00040609090906004070706010020506090C1
:1017000090906004070706010050A06090909060E0
:1017100004070706010050006090909060050505E1
:1017200006000088502050880408080601FF107049
:10173000B0B0D0D0E08004070706010040209090B0
:101740009090600407070601002040909090906000
:10175000040707060100205090909090600407074E
:101760000601005000909090906005070706000069
:101770001020885020202004060606010080E090FA
:1017800090E0800406060601006090A0A090A004EE
:1017900007070601004020007090907004070706BC
:1017A000010020400070909070040707060100209F
:1017B00050007090907004070706010050A0007060
:1017C000909070040606060100500070909070041E
:1017D0000707060100205020709090700504040651
:1017E000000070A8B0780406060601FE70808070C4
:1017F000204004070706010040200060B0C07004CC
:10180000070706010020400060B0C070040707060B
:10181000010020500060B0C07004060606010050B0
:101820000060B0C070030707060100804000C040A0
:1018300040E0030707060100204000C04040E003ED
:10184000070706010040A000C04040E0030606066E
:101850000100A000C04040E004070706010030601E
:10186000107090906004070706010050A000E090FF
:1018700090900407070601004020006090906004EB
:1018800007070601002040006090906004070706EB
:10189000010020500060909060040707060100508E
:1018A000A000609090600406060601005000609061
:1018B00090600505050600002000F80020040404DF
:1018C00006010070B0D0E0040707060100402000C8
:1018D00090909070040707060100204000909090BF
:1018E00070040707060100205000909090700406D5
:1018F000060601005000909090700409090601FE50
:101900002040009090907090600408080601FE80CE
:1019100080E09090E080800408080601FE5000906E
:101920009090709060220A00656E717565756569AA
:101930006E672022006F6B00526573656E643A20FB
:101940000053544F505045442E20005072696E741D
:1019500065722073746F707065642064756520749F
:101960006F206572726F72732E20466978207468DA
:1019700065206572726F7220616E642075736520D8
:101980004D39393920746F20726573746172742E09
:10199000202854656D706572617475726520697375
:1019A0002072657365742E205365742069742061FC
:1019B000667465722072657374617274696E6729EA
:1019C0000A004E6F20436865636B73756D207769FD
:1019D0007468206C696E65206E756D6265722C206E
:1019E0004C617374204C696E653A20004E6F204341
:1019F0006865636B73756D2077697468206C696EB8
:101A000065206E756D6265722C204C617374204C7C
:101A1000696E653A2000636865636B73756D206D50
:101A200069736D617463682C204C617374204C6918
:101A30006E653A20004C696E65204E756D62657268
:101A4000206973206E6F74204C617374204C696E32
:101A500065204E756D6265722B312C204C6173745C
:101A6000204C696E653A20004D313130004D3331E4
:101A70000053442072656164206572726F720A00BF
:101A8000446F6E65207072696E74696E6720666956
:101A90006C650A002569730025696D20256973004E
:101AA0002569682025696D202569730025696420F2
:101AB0002569682025696D202569730025697920CD
:101AC000256964202569682025696D2025697300D2
:101AD00020573A0042656420636F6F6C696E672E11
:101AE0002E2E004265642068656174696E672E2E33
:101AF0002E0023646566696E652044454641554C59
:101B0000545F004B6420004B6920004B7020005054
:101B10004944204175746F74756E652066696E69FD
:101B200073686564212050757420746865206C6149
:101B30007374204B702C204B6920616E64204B64C1
:101B400020636F6E7374616E74732066726F6D20A4
:101B500062656C6F7720696E746F20436F6E666983
:101B60006775726174696F6E2E680A00504944206F
:101B70004175746F74756E65206661696C6564216A
:101B80002074696D656F75740A00453120544845AD
:101B9000524D414C2052554E4157415900546865B1
:101BA000726D616C2052756E6177617900453120EC
:101BB00048656174696E67206661696C6564004898
:101BC000656174696E67206661696C65640050497F
:101BD00044204175746F74756E65206661696C652B
:101BE00064212054656D706572617475726520742E
:101BF0006F6F20686967680A00204B643A200020F4
:101C00004B693A2000204B703A20000A20436C6157
:101C10007373696320504944200A002054753A20A8
:101C200000204B753A2000206D61783A2000206D2D
:101C3000696E3A200020643A200020626961733A9C
:101C40002000504944204175746F74756E6520738F
:101C5000746172740A00504944204175746F747540
:101C60006E65206661696C6564212054656D7065E0
:101C700072617475726520746F6F20686967680A95
:101C800000504944204175746F74756E652066611B
:101C9000696C6564212042616420657874727564A2
:101CA0006572206E756D6265720A0024F4D430503E
:101CB000C38E20C2A24017828B7011127A910D81BF
:101CC0006CD90AA861E108C7586607615143061E2E
:101CD0004B5D05C145A7041A411104093D980371E4
:101CE0003931034036DB0265339102D4305402802F
:101CF0002E1D02632CEE01752AC501B028A001102B
:101D00002781018F2564012B244B01E0223401AC93
:101D1000211F018D200D01801FFC00841EED009706
:101D20001DDF00B81CD200E61BC600201BBC0064EF
:101D30001AB200B219A8000A19A0006A189900D1B5
:101D400017910040178B00B516840031167E00B342
:101D50001579003A157300C7146F0058146A00EE25
:101D60001366008813630025135E00C7125B006CC6
:101D700012570015125400C111510070114F00216B
:101D8000114B00D61049008D104700461044000248
:101D9000104200C00F4000800F3E00420F3C000682
:101DA0000F3B00CB0E3800930E37005C0E3500273A
:101DB0000E3400F30D3200C10D3100900D30006083
:101DC0000D2E00320D2D00050D2C00D90C2B00AE70
:101DD0000C2900850C29005C0C2700350C27000E0F
:101DE0000C2600E80B2400C40B2400A00B23007D6C
:101DF0000B23005A0B2100390B2100180B2000F88F
:101E00000A1F00D90A1E00BB0A1E009D0A1D008081
:101E10000A1D00630A1C00470A1B002C0A1B001144
:101E20000A1A00F7091A00DD091900C4091900ABE4
:101E3000091900920917007B091800630917004C63
:101E400009160036091600200916000A091500F5C2
:101E5000081500E0081400CC081400B8081400A409
:101E6000081400900813007D0812006B0813005836
:101E7000081200460812003408110023081100124D
:101E800008110001081100F0071000E0071000D051
:101E9000071000C0071000B0070F00A10710009145
:101EA000070E0083070F0074070F0065070E005729
:101EB000070E0049070E003B070D002E070E0020FD
:101EC000070D0013070D0006070D00F9060C00EDC5
:101ED000060D00E0060C00D4060C00C8060C00BC81
:101EE000060C00B0060C00A4060B0099060C008D31
:101EF000060B0082060B0077060B006C060B0061D8
:101F0000060A0057060B004C060A0042060A003873
:101F1000060A002E060A0024060A001A060A001005
:101F200006090007060A00FD050900F4050900EB93
:101F3000050900E2050900D9050900D0050900C717
:101F4000050900BE050900B5050800AD050800A596
:101F50000509009C050800940508008C050800840C
:101F60000508007C050800740508006C050700657D
:101F70000508005D050700560508004E05070047E7
:101F80000507004005080038050700310507002A4D
:101F9000050700230507001C050600160507000FAE
:101FA0000507000805060002050700FB040600F50A
:101FB000040700EE040600E8040600E2040700DB64
:101FC000040600D5040600CF040600C9040600C3B9
:101FD000040600BD040600B7040600B1040500AC09
:101FE000040600A6040600A00405009B0406009554
:101FF000040500900406008A04050085040500809D
:102000000406007A04050075040500700405006BE1
:1020100004050066040500610405005C0405005722
:10202000040500520405004D040500480405004362
:102030000405003E0404003A0405003504050030A0
:102040000404002C04050027040400230405001EDA
:102050000404001A04040016040500110404000D11
:10206000040400090405000404040000040400FC46
:10207000030400F8030400F4030400F0030400EC7C
:10208000030400E8030400E4030400E0030400DCAC
:10209000030400D8030400D4030400D0030400CCDC
:1020A000030400C8030300C503030024F404D9207B
:1020B0001BC40C5C0E9804C4095F0265077101F42F
:1020C00005F900FB04B30048048700C10369005808
:1020D00003550003034500BE023A00840231005359
:1020E000022A002902250004022000E4011C00C885
:1020F000011900AF01170098011400840113007149
:102100000110006101100051010E0043010D003665
:10211000010B002B010B0020010B00150109000C25
:1021200001090003010800FB000800F3000800EBB0
:10213000000700E4000600DE000600D8000600D21A
:10214000000600CC000500C7000500C2000500BD68
:10215000000400B9000400B5000400B1000400ADA3
:10216000000400A9000400A5000300A20003009FD2
:102170000004009B000300980003009500020093F8
:10218000000300900003008D0002008B0003008814
:102190000002008600020084000300810002007F2C
:1021A0000002007D0002007B00020079000200773F
:1021B000000100760002007400020072000100714C
:1021C0000002006F0002006D0001006C0002006A56
:1021D000000100690002006700010066000100655F
:1021E0000001006400020062000100610001006063
:1021F0000001005F0002005D0001005C0001005B67
:102200000001005A00010059000100580001005768
:102210000001005600010055000100540001005368
:102220000000005300010052000100510001005065
:102230000001004F0001004E0000004E0001004D63
:102240000001004C0001004B0000004B0001004A5F
:10225000000100490001004800000048000100475B
:102260000001004600000046000100450000004556
:10227000000100440001004300000043000100424F
:102280000000004200010041000000410001004048
:102290000001003F0000003F0001003E0000003E42
:1022A0000001003D0000003D0001003C0000003C3A
:1022B0000000003C0001003B0000003B0001003A30
:1022C0000000003A00010039000000390001003828
:1022D000000000380000003800010037000000371F
:1022E0000001003600000036000000360001003515
:1022F000000000350000003500010034000000340B
:1023000000000034000100330000003300000033FF
:1023100000010032000000320000003200010031F4
:1023200000000031000000310001003000000030EA
:10233000000000300001002F0000002F0000002FDF
:102340000000002F0001002E0000002E0000002ED3
:102350000001002D0000002D0000002D0000002DC8
:102360000001002C0000002C0000002C0000002CBC
:102370000001002B0000002B0000002B0000002BB0
:102380000001002A0000002A0000002A0000002AA4
:102390000001002900000029000000290000002998
:1023A000000000290001002800000028000000288B
:1023B000000000280000002800010027000000277E
:1023C0000000002700000027000000270001002671
:1023D0000000002600000026000000260000002665
:1023E0000001002500000025000000250000002558
:1023F000000000250000002500010024000000244A
:10240000000000240000002400000024000100233C
:102410000000002300000023000000230000002330
:102420000000002300000023000100220000002221
:102430000000002200000022000000220000002214
:102440000001002100000021000000210000002107
:1024500000000021000000210000002100010020F8
:1024600000000020000000200000002000000020EC
:102470000000002000000020000000200001001FDC
:102480000000001F0000001F0000001F0000001FD0
:102490000000001F0000001F0001001E0000001EC1
:1024A0000000001E0000001E000000C23100001CE1
:1024B000260000F4190000D80F0000EB080000C04F
:1024C000040000750200004001000000006B4300A2
:1024D000006B430000A0430000000000000000006B
:1024E000000000290A002062797465733B20637242
:1024F00063200053657474696E67732053746F7240
:102500006564202800454550524F4D206461746138
:1025100073697A65206572726F722E0A00290A004B
:102520002062797465733B206372632000207374AA
:102530006F7265642073657474696E677320726569
:1025400074726965766564202800202863616C6375
:10255000756C6174656429210A0020213D200045C5
:102560004550524F4D20435243206D69736D617445
:102570006368202D202873746F7265642920002001
:1025800053697A653A2000496E6465783A200020E4
:102590004D61726C696E3D563637290A00454550CB
:1025A000524F4D2076657273696F6E206D69736D41
:1025B000617463682028454550524F4D3D002057B7
:1025C0003A007C3C3E5E2B3D3F2F5B5D3B2C2A223C
:1025D0005C0020746F6F206C6F6E6720657874727A
:1025E0007573696F6E2070726576656E7465640AC6
:1025F0000020636F6C6420657874727573696F6E08
:102600002070726576656E7465640A0043616E6E53
:102610006F74206F70656E2073756264697220003C
:1026200053442063617264206F6B0A006F70656EA3
:10263000526F6F74206661696C65640A00766F6C16
:10264000756D652E696E6974206661696C65640AD2
:1026500000534420696E6974206661696C0A004DFC
:102660003234004D32332025730057726974696E1D
:102670006720746F2066696C653A20002E0A006F2F
:1026800070656E206661696C65642C2046696C65B6
:102690003A20002E0A006F70656E206661696C65D5
:1026A000642C2046696C653A200046696C6520738D
:1026B000656C65637465640A002053697A653A2025
:1026C0000046696C65206F70656E65643A2000662F
:1026D0007265736800646F696E67002066696C6577
:1026E0003A20004E6F772000454E44205355425209
:1026F0004F5554494E450A002220706F7300222026
:10270000706172656E743A2200535542524F5554AF
:10271000494E452043414C4C207461726765743AC0
:102720002200747279696E6720746F2063616C6C2B
:10273000207375622D67636F64652066696C6573CD
:10274000207769746820746F6F206D616E79206CDA
:102750006576656C732E204D4158206C6576656CEE
:102760002069733A310A002E0A0044656C65746969
:102770006F6E206661696C65642C2046696C653AF1
:10278000200046696C652064656C657465643A0078
:102790004D313030302053002020506C616E6E651A
:1027A0007242756666657242797465733A200020DC
:1027B00046726565204D656D6F72793A2000436FF2
:1027C0006D70696C65643A20446563203330203253
:1027D0003031390A00207C20417574686F723A20CC
:1027E00028526F62204D656E646F6E2C20646566A2
:1027F00061756C7420636F6E666967290A003230F8
:1028000031392D30372D303500204C61737420550F
:102810007064617465643A20006275676669782D3A
:10282000322E302E780A004D61726C696E00205392
:102830006F6674776172652052657365740A002053
:102840005761746368646F672052657365740A002A
:102850002042726F776E206F7574205265736574B5
:102860000A002045787465726E616C20526573654C
:10287000740A00506F77657255700A007374617244
:10288000740A006175746F25632E67004C6F616474
:10289000696E672073657474696E67732066726F02
:1028A0006D2053440A006572726F722077726974EA
:1028B000696E6720746F2066696C650A00446F6EEC
:1028C0006520736176696E672066696C652E0A0003
:1028D0004D323900456E6473746F70732025632028
:1028E000256320256320256300205A3A0020593AA9
:1028F0000020583A00656E6473746F7073206869C5
:10290000743A200047323700204500205A002059F1
:1029100000204D3932205800205A0020590058001C
:1029200020204D61783A2000205A0020590058009C
:1029300020204D696E3A2000536F667420656E64E6
:1029400073746F70733A20004D3630303A20546FF4
:102950006F20636F6C6400486F74656E6420746FE1
:102960006F20636F6C640A00496E73657274206631
:10297000696C616D656E7420616E64207072657340
:102980007320627574746F6E0A00507265737320E1
:10299000627574746F6E20746F2068656174206E48
:1029A0006F7A7A6C650A00496E7365727420666985
:1029B0006C616D656E7420616E64207072657373F6
:1029C00020627574746F6E20286F72204D3130381C
:1029D000290A004D32342053256C642054256C6440
:1029E000004D3233202573004739322E39204525DA
:1029F0007300473120462564004739322E39205A6A
:102A00002573004731205A3020463230300047319C
:102A10002058257320592573204633303030004D1F
:102A200034323020532569205A2573004D31303619
:102A30002050256920532569004D31303920532518
:102A400069004D31393020532569004739322E391C
:102A50002045305A300A47315A320A47323852300C
:102A60005859004D343230205330205A300020491C
:102A70006E76616C69642065787472756465722025
:102A8000002E0A006F70656E206661696C65642CAB
:102A90002046696C653A200057726974696E672038
:102AA000746F2066696C653A2000FFE0FFD110006A
:102AB000FFFEFFD0FFE0FFC1FFD1E240A0C8A6A209
:102AC0002FF800238127AC00AFFF64A5FF64FF64EB
:102AD000A4FFD0FFFE486F74656E6420746F6F2092
:102AE000636F6C640A004F46460A004661646520C5
:102AF0004865696768742000426564204C657665A6
:102B00006C696E6720004661696C656420746F2093
:102B1000656E61626C6520426564204C6576656C0B
:102B2000696E670A00496E76616C6964206D657331
:102B3000682E0A00202844525952554E2900473227
:102B400039204175746F20426564204C6576656C50
:102B5000696E67003F20284C2C522C462C422920BD
:102B60006F7574206F6620626F756E64732E0A0035
:102B70003F2856296572626F7365206C6576656CB7
:102B800020697320696D706C61757369626C652072
:102B900028302D34292E0A00426164205A207661A3
:102BA0006C75650A004E6F2062696C696E656172B2
:102BB00020677269640A005741524E494E472120EE
:102BC0004C6F77205A204A65726B206D6179206CBA
:102BD00065616420746F20756E77616E7465642022
:102BE0007061757365732E0A005053553A2047651E
:102BF0006E657269630050726F746F636F6C3A2018
:102C0000312E3000426175643A2032353030303038
:102C10000052414D505320312E330042696C696E91
:102C2000656172204C6576656C696E6700457874E5
:102C30007275646572733A203100687474703A2F4B
:102C40002F6D61726C696E66772E6F7267004352EA
:102C50002D32302050726F00323031392D30372D07
:102C60003035006275676669782D322E302E780017
:102C70004D61726C696E005072696E74657220539A
:102C80007461747300546865726D6973746F7273E4
:102C900000426F61726420496E666F005072696E07
:102CA00074657220496E666F004D61696E004D312A
:102CB0003030300053746F70207072696E7400523F
:102CC0006573756D65207072696E74004F757461FF
:102CD0006765205265636F76657279003F005374B3
:102CE0006F70207072696E74004261636B00537480
:102CF0006F70004D3235005072696E7420706175CE
:102D0000736564005061757365207072696E74003C
:102D10004D3234005072696E742066726F6D2053AC
:102D200044004368616E67652053442063617264A8
:102D3000004D32310041626F7574205072696E74BB
:102D40006572004368616E67652066696C616D65D8
:102D50006E74004368616E67652066696C616D65BD
:102D60006E74004D36303020423000436F6E66691D
:102D70006775726174696F6E0054656D706572611C
:102D800074757265004D6F74696F6E00526573756E
:102D90006D65207072696E74004E6F20534420631D
:102DA0006172640054756E650053746F70207072A8
:102DB000696E74005061757365207072696E74007D
:102DC000496E666F2073637265656E00506C656155
:102DD0007365207265736574005052494E544552B4
:102DE0002048414C544544004B494C4C45442E200E
:102DF000005072696E7465722068616C7465642E2F
:102E0000206B696C6C28292063616C6C6564210AF5
:102E10000053544F505045442E20005072696E7438
:102E200065722073746F70706564206475652074BA
:102E30006F206572726F72732E20466978207468F5
:102E400065206572726F7220616E642075736520F3
:102E50004D39393920746F20726573746172742E24
:102E6000202854656D706572617475726520697390
:102E70002072657365742E20536574206974206117
:102E8000667465722072657374617274696E672905
:102E90000A006563686F3A004572726F723A0042C9
:102EA000696C696E656172204C6576656C696E67E8
:102EB00020477269643A0A0053544F502063616C92
:102EC0006C65642062656361757365206F6620427E
:102ED0004C546F756368206572726F72202D20727A
:102EE0006573746172742077697468204D3939395B
:102EF0000A0053544F502063616C6C656420626516
:102F00006361757365206F6620424C546F7563680A
:102F1000206572726F72202D2072657374617274F5
:102F20002077697468204D3939390A002E0A006FFC
:102F300070656E206661696C65642C2046696C65FD
:102F40003A2000626564002C2073797374656D20EB
:102F500073746F7070656421204865617465725F79
:102F600049443A20004265642068656174696E676F
:102F7000206661696C65640048656174696E6720EC
:102F80006661696C65640042454420544845524D71
:102F9000414C2052554E4157415900546865726D5D
:102FA000616C2052756E617761790045312048650A
:102FB0006174696E67206661696C6564004865616B
:102FC00074696E67206661696C65640045312054E0
:102FD0004845524D414C2052554E4157415900549D
:102FE0006865726D616C2052756E61776179002041
:102FF0002D20496E76616C69642065787472756401
:103000006572206E756D62657220210A0070012C58
:103010000190012701B0012201C0011D01F001183A
:10302000011002130130020E016002090190020436
:1030300001C002FF000003FA004003F5008003F026
:1030400000D003EB002004E6007004E100E004DCA3
:10305000004005D700C005D2004006CD00D006C80C
:10306000008007C3003008BE00F008B900C009B4F2
:1030700000B00AAF00B00BAA00D00CA500000EA053
:1030800000500F9B00C01096005012910000148C4D
:1030900000C0158700B0178200B0197D00D01B78E2
:1030A00000001E730040206E0090226900F024642E
:1030B0000040275F0090295A00E02B5500102E5049
:1030C0000020304B0010324600E033410090353C88
:1030D000001037370070383200A0392D00B03A2880
:1030E00000A03B2300603C1E00103D1900903D14E1
:1030F00000103E0F00703E0A00C03E0500003F0079
:1031000000403FFBFF803FF6FFC03FF1FF4531200D
:10311000544845524D414C2052554E41574159005B
:1031200042454420544845524D414C2052554E4151
:1031300057415900546865726D616C2052756E611B
:10314000776179004531204572723A204D415854DB
:10315000454D50004572723A204D415854454D50EE
:1031600020424544004D415854454D5020747269E9
:10317000676765726564004531204572723A204D7B
:10318000494E54454D50004572723A204D494E54B7
:10319000454D5020424544004D494E54454D502028
:1031A000747269676765726564004D383420583001
:1031B0002059323030205A204500202F0020424034
:1031C0003A0020403A004572726F7220777269743B
:1031D000696E6720746F20454550524F4D210A009B
:1031E000363726033C3D380E2E303E121A1C180886
:1031F000440AFF4308090001627573793A2070613F
:103200007573656420666F7220696E7075740A004C
:10321000627573793A2070617573656420666F72A8
:1032200020757365720A00627573793A2070726F47
:1032300063657373696E670A004B494C4C20636188
:1032400075736564206279204B494C4C206275741B
:10325000746F6E2F70696E0A004B494C4C2063618D
:103260007573656420627920746F6F206D75636873
:1032700020696E6163746976652074696D65202DBF
:103280002063757272656E7420636F6D6D616E641C
:103290003A2000436172642072656D6F7665640048
:1032A0004361726420696E73657274656400435291
:1032B0002D32302050726F2052656164792E00509B
:1032C00072696E74696E672E2E2E005072696E746C
:1032D00020706175736564005072696E742061625C
:1032E0006F72746564004D6F76652058004D6F767F
:1032F000652059004D6F7665205A004578747275C7
:10330000646572004578747275646572004D6F76FD
:1033100065205A004D6F76652059004D6F76652007
:1033200058004D6F74696F6E0044697361626C651B
:10333000207374657070657273004D383400466197
:103340006465204865696768740046616465204863
:103350006569676874004F6666004F6E0042656479
:10336000204C6576656C696E67004C6576656C20EF
:10337000626564004732380A47323900486F6D652C
:10338000205A00473238205A00486F6D6520590096
:10339000473238205900486F6D6520580047323851
:1033A0002058004175746F20686F6D650047323892
:1033B000004D6F76652061786973004D61696E001C
:1033C0003F005374617274207072696E7420004300
:1033D000616E63656C005072696E740043616E6E5D
:1033E0006F7420656E746572207375626469723AD9
:1033F0002000022E2E004D61696E00436D643A205C
:1034000053746F7700436D643A204465706C6F7934
:1034100000436D643A2053656C662D5465737400E7
:10342000436D643A2053572D4D6F646500436D64BE
:103430003A20526573657400436F6E6669677572F2
:103440006174696F6E004F6666004F6E0043617372
:1034500065206C69676874004C6967687420427203
:10346000696768746E657373004C6967687420429D
:1034700072696768746E65737300436F6E6669671F
:1034800075726174696F6E0053746F726520736535
:103490007474696E67730042656400426564004E2F
:1034A0006F7A7A6C65004E6F7A7A6C650046616E51
:1034B0002073706565640046616E20737065656495
:1034C00000436F6E66696775726174696F6E004C58
:1034D0006F61642073657474696E67730053746FF1
:1034E00072652073657474696E67730052657374D6
:1034F0006F7265206661696C736166650050726504
:1035000068656174205045544720636F6E660050B3
:1035100072656865617420504C4120636F6E66006F
:103520004F6666004F6E004F757461676520526587
:10353000636F766572790043617365206C696768B3
:103540007400424C546F7563680050726F6265205E
:103550005A204F666673657400416476616E6365D8
:10356000642053657474696E6773004D61696E0001
:103570005072656865617420504C4120456E64004E
:103580005072656865617420504C4120426564004A
:103590005072656865617420504C410054656D70CF
:1035A000657261747572650050726568656174203A
:1035B0005045544720456E640050726568656174DB
:1035C000205045544720426564005072656865612B
:1035D0007420504554470054656D70657261747570
:1035E000726500436F6F6C646F776E005072656830
:1035F0006561742050455447005072656865617478
:1036000020504C410046616E207370656564004631
:10361000616E207370656564004265640042656494
:10362000004E6F7A7A6C65004E6F7A7A6C65004D49
:1036300061696E0050726F6265205A204F66667332
:10364000657400466C6F7700466C6F770046616E5C
:103650002073706565640046616E207370656564F3
:103660000042656400426564004E6F7A7A6C6500C2
:103670004E6F7A7A6C6500537065656400537065AF
:103680006564004D61696E005654726176206D6903
:103690006E005654726176206D696E00566D696ECB
:1036A00000566D696E00566D6178204500566D615B
:1036B00078204500566D6178205A00566D6178205B
:1036C0005A00566D6178205900566D617820590076
:1036D000566D6178205800566D617820580041641D
:1036E00076616E6365642053657474696E677300F8
:1036F000416D6178204500416D6178204500416D44
:103700006178205A00416D6178205A00416D6178DE
:10371000205900416D6178205900416D6178205831
:1037200000416D6178205800412D74726176656C9E
:1037300000412D74726176656C00412D7265747262
:1037400061637400412D726574726163740041633A
:1037500063656C00416363656C00416476616E6310
:1037600065642053657474696E67730050726F628C
:10377000696E67206661696C65640A0050726F62E9
:10378000696E67206661696C656400486F6D6520CD
:10379000257325732573206669727374002066692A
:1037A0007273740A00486F6D652000220A00556E1E
:1037B0006B6E6F776E20636F6D6D616E643A202261
:1037C0000025753A2530327500253032753A25309E
:1037D00032750025756420253032753A25303275F2
:1037E000001FE0201020102010102010202010209A
:1037F0001030300840048003001FE03FF03FF03FEE
:10380000F01FE01FE03FF03FF03FF00FC0078003E4
:10381000003FFFF038007030FC3020FC10207810A2
:103820002030102C00D02E31D02F7BD02F7BD02EEB
:1038300031D02C00D020301020781020FC1030FC2B
:10384000303800703FFFF03FFFF0380070318630B5
:103850002387102787902F87D02F03D02030102068
:1038600078102078102030102F03D02F87D0278792
:10387000902387103186303800703FFFF01FFFF82B
:103880001FFFF8041040020820020820041040081E
:1038900020801041001041000820800410400000EA
:1038A000001FFFF81FFFF8000000000000000000EC
:1038B000000000000048420000484200000041575C
:1038C00061726E696E673A20486F6D696E6720425B
:1038D000756D702044697669736F72203C20310ADF
:1038E000000202040000A0400000A04000000040D0
:1038F00000006B4300006B430000A043FFFFFF4D3F
:1039000037303220542564004D363030204230208C
:10391000542564004D373032203B2564004D37304C
:103920003120542564004368616E67652066696CC8
:10393000616D656E740050726568656174204375D1
:1039400073746F6D005072656865617420504554E2
:1039500047005072656865617420504C4100507298
:10396000656865617420437573746F6D00426163AF
:103970006B00436F6E74696E756500507572676594
:10398000206D6F726500524553554D45204F505480
:10399000494F4E533A005052494E542050415553CE
:1039A000454400554E4C4F41442046494C414D45FD
:1039B0004E54004C4F41442046494C414D454E54D5
:1039C0000020204E6F7A7A6C653A2000200050610A
:1039D000726B696E672E2E2E00746F207374617285
:1039E000740066696C616D656E74206368616E67F2
:1039F00065005761697420666F720066696C616D5D
:103A0000656E7420756E6C6F616400576169742017
:103A1000666F7200506C6561736520776169742E02
:103A20002E2E004E6F7A7A6C652068656174696E1F
:103A30006700746F2068656174206E6F7A7A6C65B8
:103A400000507265737320627574746F6E00746FCA
:103A500020636F6E74696E756500616E64207072AC
:103A600065737320627574746F6E00496E7365724E
:103A7000742066696C616D656E740066696C616D59
:103A8000656E74206C6F6164005761697420666FA5
:103A90007200746F20726573756D65207072696E47
:103AA0007400507265737320627574746F6E007465
:103AB0006F20726573756D652E2E2E0057616974C7
:103AC00020666F72207072696E740066696C616D39
:103AD000656E742070757267650057616974206641
:103AE0006F72003E200045787472756465642074BE
:103AF0006F74616C3A00256C642E25696D003E2060
:103B0000004C6F6E67657374206A6F622074696D14
:103B1000653A003E2000546F74616C207072696ECB
:103B2000742074696D653A00436F6D706C657465DF
:103B3000643A20005072696E7420436F756E743A57
:103B400020004D61782054656D703A20313230008C
:103B50004D696E2054656D703A203500544265649D
:103B60003A4550434F53203130304B004D6178205F
:103B700054656D703A20333030004D696E205465C5
:103B80006D703A20350054303A204550434F532051
:103B90003130304B0056652D6A65726B0056652DCD
:103BA0006A65726B00567A2D6A65726B00567A2DC3
:103BB0006A65726B0056792D6A65726B0056792DB5
:103BC0006A65726B0056782D6A65726B0056782DA7
:103BD0006A65726B00416476616E6365642053654B
:103BE0007474696E6773004573746570732F6D6DBF
:103BF000004573746570732F6D6D005A7374657032
:103C0000732F6D6D005A73746570732F6D6D00594D
:103C100073746570732F6D6D005973746570732FB5
:103C20006D6D005873746570732F6D6D00587374EB
:103C30006570732F6D6D00416476616E63656420FD
:103C400053657474696E6773003F00496E697469E7
:103C5000616C697A6520454550524F4D0043616E55
:103C600063656C00496E6974004D34323800496EEA
:103C7000697469616C697A6520454550524F4D0001
:103C800046696C616D656E740054656D7065726136
:103C9000747572650053746570732F6D6D004A659D
:103CA000726B00416363656C65726174696F6E006D
:103CB00056656C6F636974790053657420686F6D25
:103CC00065206F66667365747300436F6E6669671F
:103CD00075726174696F6E006F70656E0054524941
:103CE000474745524544003A20007A5F6D696E00AF
:103CF000795F6D696E00785F6D696E005265706FF7
:103D00007274696E6720656E6473746F702073746B
:103D1000617475730A00205A3A0020593A00204312
:103D20006F756E7420583A0020453A00205A3A00C8
:103D300020593A00583A0020746F6F206C6F6E67FC
:103D400020657874727573696F6E20707265766520
:103D50006E7465640A0020636F6C64206578747209
:103D60007573696F6E2070726576656E7465640A2E
:103D70000000002100240027002A002D003000331D
:103D80000001010000040107010A010000220025D2
:103D90000028002B002E0031003400020100000535
:103DA0000108010B01000020002300260029002C3F
:103DB000002F003200000100000301060109010587
:103DC000050505070508080808020202020A0A0894
:103DD00008040404040101010101010101030303BA
:103DE0000303030303040707070C0C0C0C0C0C0C57
:103DF0000C0202020206060606060606060B0B0B5E
:103E00000B0B0B0B0B010210202008081020401098
:103E1000204080020102010804020101020408108E
:103E200020408080402010080402018004020180AC
:103E300040201008040201080402010102040810D5
:103E4000204080010204081020408000000A0B027C
:103E5000090C0D0E0807030401000000000000001B
:103E60000000000000000000000000000000000052
:103E7000000000000000001211100000000000000F
:103E80000000000000000000000000000000000032
:103E9000004D6F766520302E3032356D6D004D6FE0
:103EA000766520302E316D6D004D6F766520316D59
:103EB0006D004D6F76652031306D6D004D6F76650C
:103EC000206178697300486F74656E6420746F6F49
:103ED00020636F6C64004578747275646572004D80
:103EE0006F7665205A004D6F76652059004D6F76CC
:103EF0006520580048617264636F6465642044659E
:103F00006661756C742053657474696E6773204CB8
:103F10006F616465640A00F4010000F4010000644C
:103F2000000000E803000000007A4300007A43002C
:103F300000A0400000C8410000A0420000A04200D4
:103F400000C8430000BA423A0A0020204D36303300
:103F500020002055004C0046696C616D656E742030
:103F60006C6F61642F756E6C6F6164206C656E6739
:103F70007468733A0A0020204D393030204B004CD1
:103F8000696E65617220416476616E63653A0A000C
:103F900020204D383531205A005A2D50726F6265FD
:103FA000204F66667365740020204D3431332053F2
:103FB00000506F7765722D4C6F7373205265636F7D
:103FC000766572793A0A0020440020490020204D8D
:103FD0003330312050005049442073657474696E49
:103FE00067733A0A00204600204200204800202043
:103FF0004D3134352053004D6174657269616C2018
:1040000068656174757020706172616D6574657248
:10401000733A0A00204A00202047323920572049AD
:1040200000205A0020204D34323020530041757456
:104030006F20426564204C6576656C696E673A0A4C
:1040400000205A0020590020204D323036205800E0
:10405000486F6D65206F66667365743A0A00204587
:1040600000205A00205900205800205400205300FE
:1040700020204D32303520420020453C6D61785F74
:10408000655F6A65726B3E0020583C6D61785F78B1
:104090005F6A65726B3E20593C6D61785F795F6A3B
:1040A00065726B3E205A3C6D61785F7A5F6A65721B
:1040B0006B3E00416476616E6365643A20423C6DFC
:1040C000696E5F7365676D656E745F74696D655F5A
:1040D00075733E20533C6D696E5F66656564726101
:1040E00074653E20543C6D696E5F74726176656CD8
:1040F0005F66656564726174653E002054002052FD
:104100000020204D323034205000416363656C65DF
:10411000726174696F6E2028756E6974732F7332C3
:10412000293A20503C7072696E745F616363656CFC
:104130003E20523C726574726163745F61636365B3
:104140006C3E20543C74726176656C5F616363659C
:104150006C3E0A00204500205A0020590020204DC6
:104160003230312058004D6178696D756D204163A2
:1041700063656C65726174696F6E2028756E697411
:10418000732F7332293A0A00204500205A00205923
:104190000020204D3230332058004D6178696D7514
:1041A0006D206665656472617465732028756E693B
:1041B00074732F73293A0A00537465707320706505
:1041C0007220756E69743A0A0020204D323030201A
:1041D00044300A0020204D32303020440020446911
:1041E0007361626C65640A0046696C616D656E742A
:1041F0002073657474696E67733A0020204D313402
:10420000392043203B20556E69747320696E20432A
:10421000656C736975730A0020286D6D2900202074
:10422000473231202020203B20556E69747320696D
:104230006E206D6D00486F6D696E67206661696CF8
:104240006564004361703A00436C69636B20746F6E
:1042500020726573756D652E2E2E0000E300FD0043
:1042600011241FBECFEFD1E2DEBFCDBF00E00CBFF7
:1042700013E0A0E0B2E0EAEAFAE602E00BBF02C017
:1042800007900D92A438B107D9F728E1A4E8B3E06C
:1042900001C01D92A23EB207E1F711E2CFE2D1E2E6
:1042A00000E006C021970109802FFE010F94B93468
:1042B000CE32D10780E00807A9F70F941C1E0D9499
:1042C00044350C9400002F923F924F925F926F9270
:1042D0007F928F929F92AF92BF92CF92DF92EF9296
:1042E000FF920F931F93CF93DF93CDB7DEB7C955DE
:1042F000D1090FB6F894DEBF0FBECDBF6A968FAF5F
:104300006A972091B7182D962FAF2D9721E0209313
:10431000B7188091DB188D3411F40C94B8298435CA
:1043200011F40C943037873411F00C944B372090F3
:10433000D9183090DA183BE12316310409F4A5C5E9
:10434000CCF454E0251631044CF482E028163104F4
:104350000CF042C037FE34C00C94B42994E0291606
:10436000310409F453C5A5E12A16310411F40C9463
:104370004D37FAC7BAE22B16310409F427C76CF49B
:10438000FDE12F16310409F4B9C50CF4A7C53EE1CF
:104390002316310409F4B6C5E7C74BE524163104EA
:1043A00009F469C65CE52516310409F468C68AE596
:1043B0002816310409F0D8C7109294030C944D3795
:1043C00080913D02882311F40C944D370E94129085
:1043D0000F94E20B0C944D3780913D02882311F429
:1043E0000C944D370E94129082E50E94C2A088234F
:1043F00009F436C10E942F9E4B015C0120E030E0A1
:10440000A9010F941F2B882309F4F8C420915005AB
:104410003091510540915205509153052CA33DA375
:104420004EA35FA38091540590915505A091560528
:10443000B091570588A799A7AAA7BBA72091F31702
:104440003091F4174091F5175091F6172CA73DA71E
:104450004EA75FA78091F7179091F817A091F917D1
:10446000B091FA1788AB99ABAAABBBAB6CA17DA19D
:104470008EA19FA10F941F2B81110DC028A939A9CE
:104480004AA95BA968A579A58AA59BA50F941F2BAE
:10449000882309F4B3C411E092E02916310409F02D
:1044A00010E020E030E0A901C501B4010F941F2BFA
:1044B000881F8827881F181749F020E030E040E85F
:1044C0005FEB28AF39AF4AAF5BAF08C080E090E048
:1044D000A0E8BFE388AF99AFAAAFBBAF2CA13DA1C5
:1044E0004EA15FA16CA57DA58EA59FA50F94B831A7
:1044F0006CAB7DAB8EAB9FAB28A539A54AA55BA560
:1045000068A979A98AA99BA90F94B8316B017C018C
:104510002CA93DA94EA95FA9CA01B9010F94842B0A
:104520002B013C01A7019601C701B6010F94842B12
:104530009B01AC01C301B2010F94B9310F94253432
:104540002B013C019B01AC0160E070E080E89FE33F
:104550000F9495326CAF7DAF8EAF9FAF20E030E00F
:1045600040E05FE3C301B2010F94842B2B013C01B7
:10457000A5019401C501B4010F94842B4B015C018A
:10458000A3019201C301B2010F94842B9B01AC01E2
:10459000C501B4010F94B8310F94253428AD39AD5D
:1045A0004AAD5BAD0F94842B4B015C01C701B60192
:1045B00090582CAD3DAD4EAD5FAD0F94842BA50151
:1045C00094010F94842B6B017C012CA53DA54EA575
:1045D0005FA56CA17DA18EA19FA10F94B93120E0B0
:1045E00030E040E05FE30F94842B9B01AC01C701F6
:1045F000B6010F94B9312CA13DA14EA15FA10F943A
:10460000B8316B017C0128A939A94AA95BA968A521
:1046100079A58AA59BA50F94B93120E030E040E050
:104620005FE30F94842B2B013C012CAD3DAD4EADCF
:104630005FAD6CA97DA98EA99FA90F94842BA501BC
:1046400094010F94842B9B01AC01C301B2010F9420
:10465000B93128A539A54AA55BA50F94B83114C076
:1046600089E40E94C2A0882329F00E942F9E6B013A
:104670007C0103C0C12CD12C76018AE40E94C2A027
:104680008823D9F00E942F9E6CA77DA78EA79FA795
:1046900020E030E0A901C701B6010F941F2B811162
:1046A0001AC020E030E0A9016CA57DA58EA59FA5CC
:1046B0000F941F2B81110FC0A1C320E030E0A9018E
:1046C000C701B6010F941F2B882309F497C31CA6BA
:1046D0001DA61EA61FA6A701960150582CA33DA3F8
:1046E0004EA35FA38CA59DA5AEA5BFA5B05888A776
:1046F00099A7AAA7BBA7CA01B9010F94842B4B01A4
:104700005C0128A539A54AA55BA5CA01B9010F948A
:10471000842B9B01AC01C501B4010F94B9310F94F6
:1047200025342C966CAF7DAF8EAF9FAF2C97209128
:10473000500530915105409152055091530528ABD9
:1047400039AB4AAB5BABA701960168A979A98AA9E5
:104750009BA90F94B9316CAF7DAF8EAF9FAF8091A5
:10476000540590915505A0915605B091570588AF15
:1047700099AFAAAFBBAF2CA53DA54EA55FA5BC01C7
:10478000CD010F94B93161966CAF7DAF8EAF9FAF05
:1047900061972091F3173091F4174091F5175091DC
:1047A000F61724962CAF3DAF4EAF5FAF24972CADDC
:1047B0003DAD4EAD5FAD24966CAD7DAD8EAD9FAD84
:1047C00024970F94B8316B017C018091F717909179
:1047D000F817A091F917B091FA1728968CAF9DAFF2
:1047E000AEAFBFAF289761962CAD3DAD4EAD5FAD7E
:1047F0006197BC01CD010F94B8314B015C01209150
:1048000058053091590540915A0550915B056596C0
:104810002CAF3DAF4EAF5FAF65976091FB177091C6
:10482000FC178091FD179091FE170F94B8316CAB77
:104830007DAB8EAB9FABA70196016CA17DA18EA134
:104840009FA10F94842B2B013C01A501940168A525
:1048500079A58AA59BA50F94842B9B01AC01C3016C
:10486000B2010F94B9312B013C01A50194016CA157
:104870007DA18EA19FA10F94842B4B015C01A70108
:10488000960168A579A58AA59BA50F94842B9B0109
:10489000AC01C501B4010F94B831A30192010F948A
:1048A0002C326B017C0120E030E0A9010F941F2B1A
:1048B00087FF0AC02BED3FE049EC50E4C701B60189
:1048C0000F94B9316B017C012BED3FE049EC50E4D2
:1048D000C701B6010F94953220E030E040EC51E47E
:1048E0000F94842B0F947F320F9402338B01672B2C
:1048F00011F401E010E032E02316310451F42BED05
:104900003FE049EC50E4C701B6010F94B8316B01A8
:104910007C0120E030E0A901C701B6010F941F2BF4
:10492000811126C024962CAD3DAD4EAD5FAD2497D0
:1049300068A979A98AA99BA90F941F2B811118C076
:1049400028962CAD3DAD4EAD5FAD289768AD79ADE5
:104950008AAD9BAD0F941F2B81110AC008E110E0B6
:10496000FBEDCF2EFFE0DF2EF9ECEF2EF0E4FF2E73
:10497000A70196012C966CAD7DAD8EAD9FAD2C97A9
:104980000F94842B4B015C0120E030E0A9016CA95D
:104990007DA98EA99FA90F941F2B8823D9F0A5016B
:1049A0009401C501B4010F94842B4B015C012CA927
:1049B0003DA94EA95FA9CA01B9010F94842B9B019F
:1049C000AC01C501B4010F94B9310F9425344B01EA
:1049D0005C010DC020E030E0A901C501B4010F94D5
:1049E000DF3387FF04C0B7FAB094B7F8B0942FE66E
:1049F00032E143E85AE3C501B4010F941F2B87FD50
:104A0000F1C140905C0550905D0560905E0570902E
:104A10005F05C501B4010F942E330F9402331B01BF
:104A20006017710708F41801B10180E090E00F945D
:104A3000232B4B015C019B01AC01C701B6010F9414
:104A4000953268AB79AB8AAB9BABA50194016CA99D
:104A50007DA98EA99FA90F9495322C966CAF7DAF3E
:104A60008EAF9FAF2C97A30192016091FF177091B9
:104A7000001880910118909102180F94B831A50187
:104A800094010F94953269966CAF7DAF8EAF9FAF56
:104A9000699728A939A94AA95BA9CA01B9010F9444
:104AA000842B20E030E040E05FE30F94842B9B01F7
:104AB000AC0160E070E080E89FE30F94B831249689
:104AC0006CAF7DAF8EAF9FAF249765968CAD9DADDB
:104AD000AEADBFAD659789879A87AB87BC874D869A
:104AE0005E866F86788A6091790270917A02072ECD
:104AF000000C880B990B0F94252B209149023091C3
:104B00004A0240914B0250914C020F94842B2AE0B0
:104B100037ED43E25CE30F94842B6C8F7D8F8E8F97
:104B20009F8F0F94BE159B01AC0128533F4F4F4FF1
:104B30005F4F28962CAF3DAF4EAF5FAF28974CA08C
:104B40005DA06EA07FA041E050E05DAB4CAB59E1B1
:104B500058AF8CA99DA98215930508F01BC10E942E
:104B6000CBC10F94BE15DC01CB0128962CAD3DAD19
:104B70004EAD5FAD2897821B930BA40BB50BB7FD11
:104B800011C00F94BE159B01AC0128533F4F4F4FEE
:104B90005F4F28962CAF3DAF4EAF5FAF289780E0B8
:104BA0000E9466C838AD315038AF332309F441C094
:104BB00028A539A54AA55BA524966CAD7DAD8EAD23
:104BC0009FAD24970F94842B6B017C019201A3016C
:104BD00068A979A98AA99BA90F94842BA70196019A
:104BE0000F94B9317B018C019201A30124966CAD25
:104BF0007DAD8EAD9FAD24970F94842B4B015C014E
:104C000028A539A54AA55BA568A979A98AA99BA960
:104C10000F94842B9B01AC01C501B4010F94B831F2
:104C20002B013C01C701D80188A799A7AAA7BBA758
:104C30004FC04CA95DA9BA0180E090E00F94232BEE
:104C400028A939A94AA95BA90F94842B4B015C01BF
:104C50000F9492326B017C01C501B4010F941B3497
:104C60004B015C01A70196016CA17DA18EA19FA1C2
:104C70000F94842B2B013C012CA53DA54EA55FA5CF
:104C8000C501B4010F94842BA30192010F94B93193
:104C90002B013C01A50194016CA17DA18EA19FA1D6
:104CA0000F94842B4B015C012CA53DA54EA55FA55F
:104CB000C701B6010F94842B9B01AC01C501B4015F
:104CC0000F94B83168A779A78AA79BA759E158AF75
:104CD0009201A3016CAD7DAD8EAD9FAD0F94B93146
:104CE00069837A838B839C8328A539A54AA55BA514
:104CF00061966CAD7DAD8EAD9FAD61970F94B9316E
:104D00006D837E838F8398872C962CAD3DAD4EAD01
:104D10005FAD2C9769857A858B859C850F94B93119
:104D200069877A878B879C8769962CAD3DAD4EADA0
:104D30005FAD69976D857E858F8598890F94B931B0
:104D40006D877E878F87988B80917802882321F0EA
:104D5000CE0101960E94EDFEC12CD12CE0E8EE2E92
:104D6000EFE3FE2E8E01045E1F4F9E01235F3F4F37
:104D7000AE01475F5F4FBE016B5F7F4FCE01019673
:104D80000E94A684882331F08CA99DA901969DAB31
:104D90008CABDFCE80E1E3EFF7E1DE01119601900D
:104DA0000D928A95E1F7C12CD12C70E8E72E7FE3B4
:104DB000F72E8E01045E1F4F9E01235F3F4FAE0111
:104DC000475F5F4FBE016B5F7F4FCE0101960E9430
:104DD000A68480E1FE013196A0E5B5E001900D9238
:104DE0008A95E1F70F94BE156093C2177093C317AD
:104DF0008093C4179093C5170C944D370E9439B512
:104E000089E094E00E9456B40C944D3780E50E94EE
:104E1000C2A0882329F00E94EC9D6B017C0103C095
:104E2000C12CD12C760183E50E94C2A0882361F0B9
:104E30000E942F9E20E030E04AE754E40F94842B38
:104E40000F9402336B017C010E94FEFA80913905B8
:104E5000811105C060E08FE194E00E94D4D20F94EC
:104E6000BE15C60ED71EE81EF91E0F94BE15DC0136
:104E7000CB018C199D09AE09BF09B7FD02C00C9486
:104E80004D3780E00E9466C8F0CF0E94DEEB8111B2
:104E90000C944D3780E090E0A0E2B1E489839A83DE
:104EA000AB83BC8380E090E0A1E6B3E48D839E8376
:104EB000AF83B88780E090E0A0EAB1E489879A8761
:104EC000AB87BC8760E070E080E50E94CA96BE01B7
:104ED0006F5F7F4F0E94B1D10C944D378091C817FE
:104EE0008770873011F00C945A3760E08FE40E948D
:104EF000E5A081110C944D370C945A370E94F7A00D
:104F00000C944D3720E030E040E252E460915005CF
:104F10007091510580915205909153050F94B831CD
:104F2000AB01BC0188E50E94F7496C8F7D8F8E8FA5
:104F30009F8F20E030E040E251E460915405709191
:104F4000550580915605909157050F94B831AB01E6
:104F5000BC0189E50E94F7499B01AC0169837A8312
:104F60008B839C836C8D7D8D8E8D9F8D0F94A31A6A
:104F7000882311F40C944D3780E00E9489B00F947F
:104F8000C70E61E085E40E94E5A021E0482FBE0144
:104F90006F5F7F4FCE014C960E945FEC6B017C01EE
:104FA0009B01AC010F94673481115FC08C8C9D8C88
:104FB000AE8CBF8C20E030E0A901C501B4010F9494
:104FC0001F2B87FF05C027E137EB41E558EB04C0F5
:104FD00027E137EB41E558E3C501B4010F94B9313E
:104FE000AB01BC018FE494E00E940BB589809A80EC
:104FF000AB80BC8020E030E0A901C501B4010F9472
:105000001F2B87FF05C027E137EB41E558EB04C0B4
:1050100027E137EB41E558E3C501B4010F94B931FD
:10502000AB01BC018AE494E00E940BB520E030E0C3
:10503000A901C701B6010F941F2B87FF05C027E107
:1050400037EB41E558EB04C027E137EB41E558E386
:10505000C701B6010F94B931AB01BC0185E494E0FE
:105060000E940BB58AE00E945FC80F94AE0E0F94A9
:1050700072100C944D37209394030C944D3780910B
:10508000D818882329F1893009F09CC04BE7C42E39
:1050900042E0D42E50E5E52E55E0F52E00E010E07C
:1050A000D6018D916D010E94C2A0882351F00E940B
:1050B0002F9EF7016083718382839383133009F4F9
:1050C00001E01F5FF4E0EF0EF11C143049F774C0EB
:1050D0009BE7292E92E0392E26EEE22E27E1F22ED2
:1050E00020E535E03DA32CA332EBC32E37E1D32ED0
:1050F00000E010E0D1018D911D010E94C2A0882323
:1051000009F44BC00E942F9E2B013C01133049F043
:10511000F60120813181428153810F94B8312B01F6
:105120003C01ACA1BDA12D913D914D915C91C3017C
:10513000B2010F94B8314B015C012DEB37E346E827
:1051400055EB0F94DF3387FD0AC02DEB37E346E8BC
:1051500055E3C501B4010F941F2B1816F4F4133056
:1051600051F440925C0550925D0560925E0570922C
:105170005F0501E012C0A5019401F7016081718112
:10518000828193810F94B931D7016D937D938D9373
:105190009C931397812F0E947FFF1F5FB4E0EB0E5B
:1051A000F11CECA1FDA13496FDA3ECA3F4E0CF0E1D
:1051B000D11C143009F09ECF002321F08CE595E03E
:1051C0000E940FFB0F9472100C944D3780913D029A
:1051D000882311F40C944D3789E40E94C2A0082F53
:1051E000882321F00E942C9EE82E01C0E12C8AE445
:1051F0000E94C2A0182F882321F00E942C9EF82E16
:1052000001C0F12C002319F023E02E1528F0112302
:1052100049F033E03F1530F487E594E00E9456B43E
:105220000C944D3780E1E0E5F5E0A3EFB7E10190A4
:105230000D928A95E1F70023F1F0209161183091E9
:1052400062184E2D4203B001439F700D11248091CE
:10525000270590912805680F791F072E000C880BF1
:10526000990B0F94252B6093F3177093F417809389
:10527000F5179093F6171123F1F0209163183091F0
:1052800064185F2D5203B001539F700D112480915B
:10529000290590912A05680F791F072E000C880BAD
:1052A000990B0F94252B6093F7177093F817809341
:1052B000F9179093FA1760E080E50E94E5A0882333
:1052C00081F10023B1F020E030E040E252E460914F
:1052D000F3177091F4178091F5179091F6170F94CA
:1052E000B9316093F3177093F4178093F517909387
:1052F000F6171123B1F020E030E040E251E4609174
:10530000F7177091F8178091F9179091FA170F9489
:10531000B9316093F7177093F8178093F91790934A
:10532000FA1740E050E0BA0186E40E94F7496B01A9
:105330007C0120E030E0A9010F94DF33181684F4DB
:1053400020E030E040E752E4C701B6010F94953207
:105350006093490270934A0280934B0290934C02EF
:105360000F94E20B0C944D370E94D0EB0C944D3708
:105370008091D9189091DA188837910509F439C7C6
:105380000CF05DC18E34910509F41AC40CF06AC0AA
:105390008A31910509F40DC3B4F58431910509F4FE
:1053A0008CC294F48131910509F478C244F40297D7
:1053B00010F00C942D370F94AD1C0C944D37429780
:1053C00009F41DC60C942D378731910509F49FC24D
:1053D0008CF48531910509F496C2469711F00C942E
:1053E0002D370E9425868091FE13877F8093FE13C0
:1053F0000C944D378831910509F49FC2499709F4FF
:10540000CBC20C942D378F31910509F48EC37CF4F7
:105410008C31910509F42EC30CF4D9C28D3191055C
:1054200009F432C34E9709F436C30C942D378B34EC
:10543000910509F4BDC34CF48032910509F43BC3D6
:105440008A9709F492C30C942D378C34910509F492
:10545000B3C38D34910511F00C942D370E94F95E81
:105460000C944D378C36910509F415C50CF047C0E6
:105470008535910509F4C6C54CF58235910509F4C9
:10548000B7C5D4F48135910511F00C942D370E94E5
:1054900024BD0E94F95E0E94A5FC0E9416C668EE1B
:1054A00073E080E090E00E949EB360E087E895E0C2
:1054B0000E94D4D20C944D378335910509F49BC5D5
:1054C0008435910509F49BC50C942D3789369105D7
:1054D00009F428C554F48C35910509F4ACC5883617
:1054E000910509F4FFC30C942D378A36910509F410
:1054F00055C58B36910509F470C50C942D3781374D
:10550000910509F4D0C4ACF48E36910509F46BC44E
:105510000CF40CC48F36910509F478C480379105DA
:1055200011F00C942D3780E090E00E9402B60C94AC
:105530004D378537910509F421C60CF073C08237C9
:10554000910509F416C68337910511F00C942D3797
:105550008AEB96E00E9456B460E08AEA96E00F94E7
:10556000501D60E085E996E00F94501D61E08EE8E3
:1055700096E00F94501D61E083E896E00F94501D73
:1055800061E083E796E00F94501D60E08AE696E0C4
:105590000F94501D61E080E696E00F94501D61E08D
:1055A00086E596E00F94501D61E08EE496E00F943E
:1055B000501D61E080E496E00F94501D60E082E3AE
:1055C00096E00F94501D60E083E296E00F94501D2A
:1055D00061E085E196E00F94501D61E08FEF95E06A
:1055E0000F94501D60E08EEE95E00F94501D60E02A
:1055F0008FED95E00F94501D60E08AEC95E00F94DC
:10560000501D61E087EB95E00F94501D60E08AEA41
:1056100095E00F94501D60E086E995E00F94501DD1
:105620000C944D378637910509F4B0C5873791053D
:1056300011F00C942D370F9490110C944D378F323C
:10564000A1E09A0711F40C94A5340CF082C08D3CB3
:10565000910509F430C7D4F58B39910509F478C464
:10566000E4F48C38910509F440C46CF48937910551
:1056700011F00C942D371092100C10920F0C0F9407
:10568000DD110C944D378139910509F4B9C586397E
:10569000910509F410C60C942D37893C910509F445
:1056A00094C654F48E3B910509F439C4883C9105A5
:1056B00009F43EC60C942D378B3C910509F4ABC61A
:1056C0008C3C910509F4C6C60C942D37823E910599
:1056D00009F474C7F4F4833D910509F409C77CF417
:1056E0008E3C910511F00C942D373BE7C32E32E030
:1056F000D32E4FE3E42E4EE0F42E10E0DFC68C3DB7
:10570000910509F4F8C68D3D910509F401C70C9483
:105710002D378C32E1E09E0711F40C94CC3364F405
:10572000883121E0920709F495C78232914011F443
:105730000C94C1330C942D378D3241E0940711F451
:105740000C94E1338E32914011F40C9461340C943A
:105750002D37853FA1E09A0711F40C94B9350CF070
:105760004BC08A39E1E09E0709F49AC304F58039F9
:1057700021E0920711F40C94A8343CF48336914054
:1057800011F40C94CA360C942D37813951E09507E9
:1057900011F40C94AB348239914011F00C942D37F4
:1057A00080E00E94FC5D0F9472100C944D37853A96
:1057B000B1E09B0711F40C94B1347CF48D39F1E025
:1057C0009F0711F40C940C37843A914011F00C941B
:1057D0002D370E94259F0C944D378C3A31E093076A
:1057E00011F40C941335843F914011F00C942D3733
:1057F0000E94695F0C944D378B3552E0950711F488
:105800000C9415364CF5883FB1E09B0711F40C94CD
:10581000BF359CF4863FF1E09F0711F40C94BC3532
:10582000873F914011F00C942D3761E083E50E9491
:10583000E5A00F9462170C944D378C3032E093073B
:1058400011F40C94D0358835924011F00C942D371A
:105850000E94E6920C944D37803A53E0950709F484
:1058600054C16CF48335B3E09B0711F40C94D83524
:105870008438934011F40C948E360C942D37873E67
:10588000F3E09F0711F40C94FE36883E934011F02C
:105890000C942D370E941F910C944D3760E086E7E1
:1058A00094E00E94D4D25F988A9880910801817018
:1058B0008093060112980C944D378EE894E00E9474
:1058C00056B4109206108BE194E10E94F16C8BE1CA
:1058D000EBE1F4E1DE01119601900D928A95E1F77A
:1058E00040E050E0BE016F5F7F4F80E090E00E949B
:1058F000508DCE0101960E94EDA58FE794E00E94A5
:1059000056B40C944D370E94FB870C944D37E091B0
:10591000D618F091D7188081882329F0803209F4B5
:1059200010823196F8CF40E061E08091D6189091D6
:10593000D7180E9436860C944D3783E50E94C2A08A
:10594000882321F00E94FC9D0E94495184E50E9419
:10595000C2A08823A9F00E94FC9D6B017C010E94DB
:105960005E6AC092C704D092C804E092C904F09263
:10597000CA04CD28CE28CF2819F081E08093CF0427
:105980000E945751882321F00E9457870E949D5EF4
:105990000E9445D30C944D378091FE1382FF03C0C3
:1059A0008B7F8093FE130E9403CD0E9445D30C94FD
:1059B0004D378091FE1383FD02C00C944D3783E573
:1059C0000E94C2A081110C94FE380C944D3783E4E0
:1059D0000E94669E882319F189EA94E00E9456B4D9
:1059E00080916215882391F0BE016F5F7F4F8FE534
:1059F00095E10E94B96B8E010F5F1F4FD8018D9109
:105A00008D01882339F00E945FC8F8CF8FE994E0B8
:105A10000E9456B48AE00E945FC80C944D37809172
:105A2000FE1382FF21C088EB94E00E9456B460917F
:105A3000FA137091FB138091FC139091FD134AE0CF
:105A40000E9499CB8FE20E945FC86091F61370911B
:105A5000F7138091F8139091F9134AE00E9499CBC3
:105A60000E948FCC0C944D378AEC94E00E9456B47F
:105A70000C944D3740E060E08091D6189091D71893
:105A80000E9436860C944D378091FE138E7F809352
:105A9000FE130C944D378091FE1383FD02C00C94CD
:105AA0004D370E9489858091D6189091D7180E9411
:105AB000EA8C0C944D378091FE1382FD0E94FEFA11
:105AC0008091FE1383FD02C00C944D3760E080E5A9
:105AD0000E94E5A0182F482F61E08091D618909180
